:1000000067EF06F00000000000EF00F000000000C5
:0A0010000000000000000000F3D71C
:0C001C001A0E0D6E0D2EFED70000120013
:0C0028003A0E0D6E0D2EFED700001200E7
:0C003400020E0D6E0D2EFED70000120013
:0A004000EDDF8A88EBDF8A981200DA
:10004A00C30EC2167BC000F0003600900036009046
:10005A000050C212E4DFC282C2A201D0FDD7C4CFCF
:0E006A0001F0006AC3500012000E01121200D5
:0E0078008A988A848A967BC083FFDEDF12009E
:100086008A948A96B80E00017B11836ED6DF120021
:100096007F0E00017B15016E01C07BF001AC03D021
:0C00A6008A808A9202D08A908A8212001E
:1000B200FF0E956EBEDFBDDF8A848A988A868A88A3
:1000C200ACDF83CF7BF08A988A96B3DFB2DF956A82
:0600D2007BC000F01200EB
:1000D8007F0E00017B15006E00C07BF08A948A9623
:1000E800BF0E001600C07BF0008C00C07BF000C083
:0600F80083FFA2DF1200ED
:1000FE000450085E0550D8A0053C095E0650D8A0F5
:10010E00063C0A5E0750D8A0073C0B5E0336070E6E
:10011E000C6E0334083609360A360B36045003A02B
:10012E000ED0085E0550D8A0053C095E0650D8A03A
:10013E00063C0A5E0750D8A0073C0B5E0DD0082681
:10014E000550D8B0053C09260650D8B0063C0A2604
:10015E000750D8B0073C0B2603360C2EDAD70234E4
:10016E00083609360A360B36045003A00ED0085E48
:10017E000550D8A0053C095E0650D8A0063C0A5E84
:10018E000750D8A0073C0B5E0DD008260550D8B0FE
:10019E00053C09260650D8B0063C0A260750D8B0B2
:1001AE00073C0B260236070E0C6E02340836093653
:1001BE000A360B36045002A00ED0085E0550D8A0A9
:1001CE00053C095E0650D8A0063C0A5E0750D8A032
:1001DE00073C0B5E0DD008260550D8B0053C09260D
:1001EE000650D8B0063C0A260750D8B0073C0B265E
:1001FE0002360C2EDAD70134083609360A360B369B
:10020E00045002A00ED0085E0550D8A0053C095E31
:10021E000650D8A0063C0A5E0750D8A0073C0B5EDD
:10022E000DD008260550D8B0053C09260650D8B08A
:10023E00063C0A260750D8B0073C0B260136070E9F
:10024E000C6E0134083609360A360B36045001A0FE
:10025E000ED0085E0550D8A0053C095E0650D8A009
:10026E00063C0A5E0750D8A0073C0B5E0DD0082650
:10027E000550D8B0053C09260650D8B0063C0A26D3
:10028E000750D8B0073C0B2601360C2EDAD70034B7
:10029E00083609360A360B36045001A00ED0085E19
:1002AE000550D8A0053C095E0650D8A0063C0A5E53
:1002BE000750D8A0073C0B5E0DD008260550D8B0CD
:1002CE00053C09260650D8B0063C0A260750D8B081
:1002DE00073C0B260036070E0C6E00340836093626
:1002EE000A360B36045000A00ED0085E0550D8A07A
:1002FE00053C095E0650D8A0063C0A5E0750D8A001
:10030E00073C0B5E0DD008260550D8B0053C0926DB
:10031E000650D8B0063C0A260750D8B0073C0B262C
:10032E0000360C2EDAD700B00ED004500826055039
:10033E00D8B0053C09260650D8B0063C0A26075010
:08034E00D8B0073C0B26120099
:10035600F250026EF29E0500FF6A0150FE6E0050DA
:08036600FD6E02BEF28E1200D2
:10036E00340E0C6EF10E0D6E0D2EFED70C2EFCD72C
:06037E0000000000120067
:100384000B6A0A6A096A00500402F4CF09F0F3CF39
:1003940008F001500502F4CF0BF0F3CF0AF000503F
:1003A4000502F3500926F4500A22E86A0B22015090
:1003B4000402F3500926F4500A22E86A0B2208C00A
:1003C40000F009C001F00AC002F00BC003F01200F3
:1003D400000E0001755D0AE375517F0807E3000E06
:1003E400765D04E376513F0801E301D04AD075C03D
:1003F4007BF04FDE76C07BF07B337B9F7B337B9F30
:100404007B337B9F3EDE75C07BF064DE50DE00C034
:100414007AF04DDE00C07AF076C07BF07B337B9FB0
:100424007B337B9F7B337B9F2CDE75C07BF052DE5E
:10043400070E7615006E00C078F000C001F0010EC2
:10044400006E015004E000360090FF0FFBD700C09F
:1004540078F0001C796F09D079517A170FD0785150
:100464007A130CD078517A1B09D07751000AF4E042
:100474007751010AF4E07751020AF4E07AC07BF084
:04048400F9DD12008C
:100488000B1E0A1E091E081E082AD8B4092AD8B449
:080498000A2AD8B40B2A120055
:1004A000060E0C6E2B0E0D6E0D2EFED70C2EFCD7ED
:0204B000120038
:1004B2004A0E396E000E3A6E7B0E3B6E000E3C6E9B
:0C04C200C26A070EC012C08EC280120079
:1004CE000450000A12E10550000A0FE10650000A1E
:1004DE000CE10750000A09E1FF0E006EFF0E016EDF
:1004EE00FF0E026E7F0E036E97D00C6A07BE0C2AAB
:1004FE000D6A0B6A0A6A096A086A03500210011033
:10050E000010D8B484D0035007180E6E0EBE0D1E08
:10051E0007AE0BD0041E051E061E071E042AD8B4F5
:10052E00052AD8B4062AD8B4072A03AE0BD0001E6B
:10053E00011E021E031E002AD8B4012AD8B4022AB4
:10054E00D8B4032A035007100E6E0EBE1CD0D0DD99
:10055E000CBE36D00DAE5BD0001E011E021E031E59
:10056E00002AD8B4012AD8B4022AD8B4032A081E05
:10057E00091E0A1E0B1E082AD8B4092AD8B40A2A44
:10058E00D8B40B2A44D007AE15D003BE0DD00350FD
:10059E000B6E02500A6E0150096E0050086E036A0F
:1005AE00026A016A006AD6D7036A026A016A006AA1
:1005BE00002A000C031E021E011E001E0C8EC7D741
:1005CE00082AD8B4092AD8B40A2AD8B40B2A045057
:1005DE00085CD8A4BFD70550095CD8A4BBD7065079
:1005EE000A5CD8A4B7D707500B5CD8A4B3D70B6A54
:1005FE000A6A096A086A002AD8B4012AD8B4022AFB
:10060E00D8B4032A03AEA6D70E6A0E88FF0C0E6A64
:0A061E000CA001D032DF000F120023
:1006280000016D51070801E282D049506B5D006EF0
:100638004AC001F0000E01564CC004F0000E056ED1
:100648009DDE00C073F001C074F06CC07BF040DD2B
:100658006DC07BF014DD6F6B4C506F5D49E26C51DF
:100668007F0801E264D06CC07BF011DD6DC07BF0C7
:1006780006DD6CC07BF02CDD18DD00C070F015DDE8
:1006880000C070F06CC07BF002DD6DC07BF0F7DC61
:100698006CC07BF01DDD73514624F66E7451472003
:1006A800F76E000E74BFFF0E4820F86E0900F5CFF4
:1006B80000F000C071F0734B742B001C726F09D0EE
:1006C80072C070F00FD071C070F00CD07151701BF7
:1006D80009D06E51000AF4E06E51010AF4E06E513F
:1006E800020AF4E070C07BF0C3DC6C2B6F2BB4D72C
:1006F8006CC07BF0CCDC6DC07BF0C1DC6CC07BF0E7
:10070800E7DCFF0E716F726B0CD071C070F071C0B6
:100718007BF0AEDC0CD072C070F072C07BF0A8DC4D
:1007280006D06E51000AF1E06E51010AF4E01200A1
:0A0738006BC054F06CC055F01200C5
:10074200376A5B6A5C6A939A9398939493969390B0
:1007520093928A9A956A8A948A968A908A828A8AD7
:100762003F0E836E6CDCC00E836E69DC8A808A92D7
:0E0772003F0E836E64DCC00E836E61DC1200ED
:10078000000E00016D5D04E36D517F0801E301D0AF
:1007900027D0000E6B5DD8A06B6B6B513F0802E257
:1007A0003F0E6B6F000E6C5DD8A06C6B6C513F08F8
:1007B00002E23F0E6C6F6B516C5D06E26BC06FF036
:1007C0006CC06BF06FC06CF06B516C5D09E36DC079
:1007D00075F06BC076F06EC077F0FCDD6B2BF4D754
:0207E000120005
:1007E2008A908A8200016D6B6D5107080EE36DC01D
:1007F2007BF048DC6C6B6C513F0805E36BC07BF00F
:100802003ADC6C2BF8D76D2BEFD78A928A806D6B0E
:100812006D5107080EE36DC07BF034DC6C6B6C51DC
:100822003F0805E36BC07BF026DC6C2BF8D76D2B01
:04083200EFD71200EA
:100836008B808B92000E5E1802E1800E5D1808E137
:10084600000E5A1802E1400E591802E126DE01D0C8
:100856008BDD3BC0E1FF3CC0E2FF53C0E6FF39C081
:0A08660000F03AC001F074DD12004A
:1008700094909492840E546E030E556E6BC05DF08E
:100880006CC05EF06DC059F06EC05AF06FC053F08E
:0E08900070C056F04D6A4E6A516A526A1200EC
:10089E008B908B82000E5E1802E1800E5D1808E1CF
:1008AE00000E5A1802E1400E591802E1F2DD01D095
:1008BE0057DD3BC0E1FF3CC0E2FF56C0E6FF39C04A
:0A08CE0000F03AC001F040DD120016
:1008D800000E00016D5D04E36D513F0801E301D096
:1008E80027D0000E6B5DD8A06B6B6B517F0802E2BE
:1008F8007F0E6B6F000E6C5DD8A06C6B6C517F081F
:1009080002E27F0E6C6F6B516C5D06E26BC06FF09C
:100918006CC06BF06FC06CF06B516C5D09E36BC021
:1009280075F06DC076F06EC077F050DD6B2BF4D7A4
:020938001200AB
:10093A00220E0C6E086A096A0A6A0B6A0C06D8B497
:10094A001FD0D8900B320A320932083203320232EF
:10095A0001320032D8A0F2D70C06D8B409D004501C
:10096A0008260550092206500A2207500B22EAD708
:10097A00045008260550092206500A2207500B2265
:02098A00120059
:10098C005FC06BF061C06CF060C06DF063C06EF066
:10099C009DDF5FC06BF061C06CF062C06DF063C036
:1009AC006EF094DF60C06BF062C06CF05FC06DF0F5
:1009BC0063C06EF0DFDE60C06BF062C06CF061C0D3
:0A09CC006DF063C06EF0D6DE12007D
:1009D60060C064F000016451625D0BE35FC06BF0C0
:1009E60061C06CF064C06DF063C06EF072DF642BA2
:0409F600F1D7120023
:1009FA000900F5CFE6FF0006FBE10106F9E1120066
:100A0A00030E0F01386F396B3A6B3B6B030E926E14
:100A1A0093DE00016B6BE0DE47DD800E6B6F000E2C
:100A2A006C6F400E6D6F000E6E6F6F6B010E706F04
:0E0A3A001ADF840E6B6F030E6C6F79DE1200F4
:100A4800F6DE5750005C0001636F58500158646F20
:100A580022DF3D50005C0001656F3E500158666F13
:100A680063C000F064C001F0000E64BFFF0E026EA8
:100A7800036E5DC004F05EC005F0000E066E076EE2
:100A880058DF5750445C046E58504558056E000EA8
:100A9800066E076E18DD00C063F001C064F065C023
:100AA80000F066C001F0000E000166BFFF0E026E86
:100AB800036E59C004F05AC005F0000E066E076EAA
:100AC80038DF3D504F5C046E3E505058056E000EA6
:100AD800066E076EF8DC0050595C0001656F015026
:100AE8005A58666F800E6419006E800E005C02E131
:100AF800000E635D07E35E50645D02E15D50635D77
:100B080001E203D0010E006E66D0800E6619006EF9
:100B1800800E005C02E1000E655D07E35A50665DD9
:100B280002E15950655D01E203D0010E006E53D019
:100B38004D50635D016E4E506459026E01C067F0FE
:100B480002C068F05150655D696F525066596A6F0E
:100B580063C04DF064C04EF065C051F066C052F0FD
:100B6800800E000A006E800E0218005C02E101503F
:100B780005081DE3800E000A006E800E6A19005CED
:100B880002E16951050813E3800E6819006E7F0EB3
:100B9800005C02E1FB0E675D0AE3800E6A19006ED5
:100BA8007F0E005C02E1FB0E695D01E303D0010EDC
:100BB800006E11D05FC0E1FF60C0E2FF63C0E6FFD6
:100BC80064C0E6FF61C0E1FF62C0E2FF65C0E6FF06
:080BD80066C0E6FF006A12008E
:100BE0005FC057F060C058F061C044F062C045F08B
:100BF00063C03DF064C03EF065C04FF066C050F089
:020C00001200E0
:100C02000001646B3750000A0EE1050E4C6E070EB0
:100C12004B6E3E0E466E110E476E000E486E200E53
:100C2200496E000E4A6E64515F24E96E000E602127
:100C3200EA6EEE5216E064515F24E96E000E602106
:100C4200EA6EEECF6BF061C06CF062C06DF063C013
:100C52006EF0E9DC4C50010F006E00506127642BEE
:040C6200E2D71200C3
:100C66008B908B921ADC3BC0E1FF3CC0E2FF56C082
:100C7600E6FF39C000F03AC001F0ABEC01F00150DC
:100C8600555C02E10050545C010ED8B0000E5F6E58
:100C960004DC3BC0E1FF3CC0E2FF56C0E6FF39C0C2
:100CA60000F03AC001F0ABEC01F00150555C02E1F6
:100CB6000050545C010ED8B0000E026E02505F1454
:080CC600006E00C05FF0120097
:100CCE00A0EC09F09BDE3C0E5F6E000E606F900E86
:100CDE00616F030E626F840E636F000E646F670E9A
:100CEE00656F030E666F75DF270E5F6E000E606F09
:100CFE00140E616F050E626F010E636F7BDF290E9E
:100D0E000B6E960E0C6E7F0E0D6E00010D2EFDD726
:100D1E000C2EFBD70B2EF9D76B6B5CDD6B6B070EB6
:100D2E006C6F6D6B010E6E6F24DD1B0E5F6E000E11
:100D3E00606F010E616F626B636B5CDF6B6B070E36
:100D4E006C6F610E6D6F010E6E6F13DD210E5F6E97
:100D5E00000E606F620E616F626B636B4BDF290E6C
:100D6E005F6E606B340E616F090E626F010E636F02
:100D7E0006DE2D0E5F6E030E606F300E616F060E77
:100D8E00626F010E636F20DE3F0E5F6E606B460E6C
:100D9E00616F070E626F010E636FF1DD420E5F6EC3
:100DAE00030E606F430E616F040E626F010E636F70
:100DBE000BDE500E5F6E606B560E616F060E626F2D
:100DCE00010E636FDCDD530E756F030E766F010E31
:100DDE00776FEAEC01F03F80010E386E3DDF005276
:100DEE00D8B4A4D1400E5F6E000E0001606F420EAB
:100DFE00616F000E626F21DE0050000AD8A496D1FA
:100E0E00000E415C02E11F0E405CD8B072D0000EA5
:100E1E00435C02E1080E425C6CE200016B6BDADCB3
:100E2E00290E5F6E606B340E616F090E626F010EDC
:100E3E00636FA5DD2D0E5F6E030E606F300E616F5A
:100E4E00060E626F010E636FBFDD3F0E5F6E606B4D
:100E5E00460E616F070E626F010E636F90DD420EDC
:100E6E005F6E030E606F430E616F040E626F010EB4
:100E7E00636FAADD500E5F6E606B560E616F060ECD
:100E8E00626F010E636F7BDD530E756F030E766F0F
:100E9E00010E776FEAEC01F06B6B070E6C6F6D6BEA
:100EAE00010E6E6F66DC1B0E5F6E000E606F010E24
:100EBE00616F626B636B9EDE6B6B070E6C6F610E08
:100ECE006D6F010E6E6F55DC3FA00AD0210E5F6E66
:100EDE00000E606F620E616F626B636B8BDE09D00A
:100EEE00150E5F6E000E606F620E616F626B636B4C
:100EFE0081DE000E006E4150005C02E14050600841
:100F0E0039E2000E435C02E1080E425C33E23FA080
:100F1E0019D000013F90150E5F6E000E606F620ECD
:100F2E00616F626B636B66DE150E0B6E4B0E0C6E95
:100F3E00BE0E0D6E0D2EFED70C2EFCD70B2EFAD735
:100F4E00000018D000013F80210E5F6E000E606F12
:100F5E00620E616F626B636B4DDE150E0B6E4B0E88
:100F6E000C6EBE0E0D6E0D2EFED70C2EFCD70B2E5C
:100F7E00FAD70000000E415C02E1290E405C12E33C
:100F8E00000E006E4150005C02E1405034080AE34E
:100F9E00000E006E4350005C02E14250090802E36D
:100FAE00030E386E000E415C02E13F0E405C12E310
:100FBE00000E006E4150005C02E1405046080AE30C
:100FCE00000E006E4350005C02E14250070802E33F
:100FDE00020E386E000E415C02E1500E405C12E3D0
:100FEE00000E006E4150005C02E1405056080AE3CC
:100FFE00000E006E4350005C02E14250060802E310
:10100E00010E386E000E435C02E10B0E425C01E2F3
:10101E00E5D682D0000E415C02E1000E405C21E379
:10102E00000E435C02E1000E425C1BE3000E006EFC
:10103E004150005C02E140507F0813E3000E006E49
:10104E004350005C02E142503F080BE3000140C0F8
:10105E0075F042C076F0000E3FB0010E776FEAECED
:10106E0001F064D0000E415C02E1000E405C26E30C
:10107E00000E435C02E1000E425C20E3000E006EA7
:10108E004150005C02E140507E0818E3000E006EF5
:10109E004350005C02E142503E0810E3000140C0A4
:1010AE005FF042C060F04050010F616F4250010F7F
:1010BE00626F000E3FB0010E636F86DC37D0000EFC
:1010CE00415C02E1010E405C26E3000E435C02E14E
:1010DE00010E425C20E3000E006E4150005C02E106
:1010EE0040507D0818E3000E006E4350005C02E194
:1010FE0042503D0810E3000140045F6E4204606FF1
:10110E00020E4024616F020E4224626F000E3FB049
:10111E00010E636F59DC0AD03850010AD8B47AD761
:10112E003850020A9FE03850030AC9E057D6FFD75D
:1013400010EE15F0220E006E010E016E1E0EF66EEE
:0E135000130EF76E000EF86EFDEC04F01200A6
:10113E00000000000000005F000000070007001420
:10114E007F147F14242A7F2A1223130864623649DF
:10115E005522500005030000001C224100004122D0
:10116E001C00082A1C2A0808083E080800503000F7
:10117E00000808080808003030000020100804029B
:10118E003E5149453E00427F400042615149462151
:10119E0041454B311814127F1027454545393C4ABD
:1011AE00494930017109050336494949360649490D
:1011BE00291E0036360000005636000000081422A4
:1011CE00411414141414412214080002015109068A
:1011DE00324979413E7E1111117E7F494949363E91
:1011EE00414141227F4141221C7F494949417F09AA
:1011FE000901013E414151327F0808087F00417FBD
:10120E0041002040413F017F081422417F40404071
:10121E00407F0204027F7F0408107F3E4141413E21
:10122E007F090909063E4151215E7F09192946466B
:10123E004949493101017F01013F4040403F1F2094
:10124E0040201F7F2018207F631408146303047846
:10125E000403615149454300007F414102040810D7
:10126E002041417F00000402010204404040404002
:10127E00000102040020545454787F484444383806
:10128E0044444420384444487F3854545418087E0B
:10129E00090102081454543C7F0804047800447D6C
:1012AE0040002040443D00007F10284400417F4014
:1012BE00007C041804787C080404783844444438CC
:1012CE007C14141408081414187C7C0804040848B0
:1012DE0054545420043F4440203C4040207C1C2069
:1012EE0040201C3C4030403C44281028440C5050B8
:1012FE00503C4464544C44000836410000007F00CA
:10130E0000004136080008082A1C08081C2A080894
:06131E005752495445003E
:06132400434C454152005C
:06132A004552415345004D
:101330005752495445204F4E2053435245454E0085
:020000040030CA
:0D000100331F3CFFBD81FF0FC00FE00F401B
:00000001FF
