:0400000085EF00F098
:1000080000C016F001C015F0896A1A0EE96E000EDC
:10001800EA6E2050E926D8B0EA2AEECF8CFF19C044
:1000280089FF19C001F00136019001C019F0015093
:10003800080802E2010E196E202A20500308D8A0F1
:10004800206AD66AF29416C000F015C001F01100BB
:100058001ED03F0E006E39D0060E006E36D05B0EF5
:10006800006E33D04F0E006E30D0660E006E2DD06D
:100078006D0E006E2AD07D0E006E27D0070E006E22
:1000880024D07F0E006E21D06F0E006E1ED021503E
:10009800000ADFE02150010ADFE02150020ADFE018
:1000A8002150030ADFE02150040ADFE02150050A4D
:1000B800DFE02150060ADFE02150070ADFE0215087
:0C00C800080ADFE02150090ADFE0120006
:1000D400086A096A100E0C6E013408360936045099
:1000E400085E0550D8A0053C095ED8B007D004507E
:1000F40008260550D8B0053C0926D89000360136AC
:060104000C2EEAD71200E8
:10010A000F01386B3B6B926A896A956A8C6AC40ED6
:10011A00D56ED66A1E6A1F6A206A010E196ED20E41
:10012A00176E040E186EF28EF28AE80E046E030E33
:10013A00056E17C000F018C001F0C7DF00C01EF03E
:10014A0001C01FF000C021F082DF00C01DF0640E64
:10015A00046E000E056E17C000F018C001F0B5DF7E
:10016A000A0E046E000E056EB0DF08C000F009C06A
:10017A0001F000C01EF001C01FF000C021F067DFCF
:10018A0000C01CF00A0E046E000E056E17C000F0C7
:10019A0018C001F09ADF0A0E046E000E056E95DF94
:1001AA0008C000F009C001F000C01EF001C01FF035
:1001BA0000C021F04CDF00C01BF00A0E046E000ED6
:1001CA00056E17C000F018C001F07FDF08C000F00C
:1001DA0009C001F000C01EF001C01FF000C021F0EC
:1001EA0036DF00C01AF0290E0B6E960E0C6E7F0ECB
:1001FA000D6E0D2EFED70C2EFCD70B2EFAD7174AF2
:10020A00182A1850270802E117500F0802E2176A45
:06021A00186A8BD7FFD724
:020000040030CA
:0D000100331F3CFFBD81FF0FC00FE00F401B
:00000001FF
