:10000000DBEF05F00000000000EF00F00000000052
:0A0010000000000000000000F3D71C
:0C001C00020E0D6E0D2EFED7000012002B
:0A002800850E0D6E0D2EFED712009E
:100032003A0E0C6E230E0D6E0D2EFED70C2EFCD733
:020042001200AA
:100044000B840BAE2DEF00F0010E036E026A016A01
:0A005400006A0A360232FF0E1200A5
:08005E000AAE029E000E120022
:1000660059BE02D08A9601D08A8659BC02D08A949B
:1000760001D08A8459BA02D08A9201D08A8259B8AC
:1000860002D08A9001D08A802FB002D08A8801D00F
:100096008A988A8AC0DF8A9A59B602D08A9601D08F
:1000A6008A8659B402D08A9401D08A8459B202D081
:1000B6008A9201D08A8259B002D08A9001D08A8071
:1000C6002FB002D08A8801D08A988A8AA4DF8A9AB9
:0C00D6002FA002D0ABDF01D0A4DF12008D
:0E00E200026A016A006A086A036A000E1200D0
:1000F0000B820BAE82EF00F00368026801680068B3
:080100000A360232FF0E120064
:100108000A6A0350D8A40A800750D8A40A820A5061
:10011800D8B4E7EF00F0030AD8B4A0EF00F00AB0B3
:100128009BEF00F006AEE5EF00F0E3EF00F002AE63
:10013800E3EF00F0E5EF00F00250800B0A6E029E3C
:100148000650800B069E0A18D8B4B1EF00F00A508A
:10015800D8B4E3EF00F0E5EF00F00750035CD8B443
:10016800BBEF00F0D8A0D7EF00F0DDEF00F00650AD
:10017800025CD8B4C5EF00F0D8A0D7EF00F0DDEFEF
:1001880000F00550015CD8B4CFEF00F0D8A0D7EF4D
:1001980000F0DDEF00F00450005CD8B4E7EF00F0A9
:1001A800D8B0DDEF00F00A52D8B4E5EF00F0E3EF85
:1001B80000F00A52D8B4E3EF00F0E5EF00F0D88081
:0E01C8001200D8901200D880D88412001200C5
:0C01D6002F9055C059F044DF2F8012001C
:1001E20055C004F056C005F004C002F005C003F08B
:1001F200044A052A57C000F058C001F0574A582A4D
:1002020000C0E9FF01C0EAFF02C0E1FF03C0E2FF54
:10021200EECFE6FF02C0E9FF03C0EAFFEE5201E0C3
:0C022200E3D755C000F056C001F01200F8
:08022E000B6A0B86FF0E1200A3
:10023600086A080E0C6E003408360450085ED8B002
:0E02460002D00826D89000360C2EF5D71200F4
:100254000C6A0E6A0250D8A443EF01F001C002F008
:1002640000C001F0006A0E860250D8A443EF01F0EA
:1002740001C002F0016A0E960E880250D8B455EF00
:1002840001F00E50035ED8A4D8A05AEF01F0D89024
:1002940002BE5FEF01F0003601360236032E4AEF4C
:1002A40001F05AEF01F0010E0C6E19DF62EF01F05C
:1002B400020E0C6EC5DE62EF01F0040E0C6ECDDE94
:0202C400120026
:1002C600086A096A000E07620364E8EF01F002504B
:1002D60006180A6E075003267E0ED8A079EF01F0A5
:1002E600035ED8B0ECEF01F07DEF01F0035ED8A01D
:1002F600F0EF01F0028E068E02C00EF001C00BF088
:1003060000C00DF000500402F4CF0CF001500502BD
:10031600F4CF00F0F3CF08F00402F3500C26F450AB
:100326000822000E00220D500502F3500C26F45050
:100336000822000E002202500402F3500826F45050
:10034600002202500502016A000E0122F350002627
:10035600F45001220D500602F3500826F4500022F4
:10036600026A000E012202220B500602F3500026FA
:10037600F4500122000E02220E500602F35001260E
:10038600F450022202BED0EF01F0083600360136E4
:1003960002360306D8B4F0EF01F0E3EF01F0D8809F
:1003A600800E08640030000E002201220222D8A02E
:1003B600E3EF01F0023201320032034AECEF01F0C2
:1003C6000AAE029E000EF2EF01F0010E87DEF2EF9A
:1003D60001F0020E8ADEF2EF01F0040E30DE1200AA
:0C03E6003A0E0D6E0D2EFED70000120026
:1003F2000900F5CFE6FF0006FBE10106F9E1120074
:10040200939A939893909392939493968A9A8A98B4
:100412008A968A948A928A900BDE0ADE09DE8A82A2
:100422008A808A8AFADD8A9A03DE8A8AF6DD8A9AC5
:10043200FFDD8A8AF2DD8A9AFBDD8A908A8AEDDD07
:100442008A9AF6DD8A8AE9DD8A9A8A928A868A8A75
:10045200E4DD8A9AEDDD8A968A808A8ADEDD8A9ACE
:100462008A908A8ADADD8A9AE3DD8A8AD6DD8A9AD6
:100472008A808A8AD2DD8A9ADBDD8A908A8ACDDDF9
:100482008A9A8A868A848A828A808A8AC6DD8A9A37
:06049200CFDD2F801200F7
:10049800880E306E0B0E316E470E326E000E336EC4
:0C04A800C26A070EC012C08EC280120093
:1004B4000FD0800E476E19D0C00E476E16D0940E22
:1004C400476E13D0D40E476E10D0800E476E0DD0F9
:1004D4004750010AEEE04750020AEEE04750030A93
:1004E400EEE04750040AEEE0F0D74804006E4750AF
:1004F400002600C047F000C059F0B3DD2F904B6ACE
:100504004B504924E96E000E4A20EA6EEE520BE08D
:100514004B504924E96E000E4A20EA6EEECF55F0A6
:0A05240058DE4B2AEDD72F8012009D
:10052E000450000A12E10550000A0FE10650000ABD
:10053E000CE10750000A09E1FF0E006EFF0E016E7E
:10054E007F0E026EFF0E036EA4D0086A096A075072
:10055E00D8B442EF03F00350D8B446EF03F0025084
:10056E0006180A6E028E068E0E6A02C008F001C0D0
:10057E000CF000C00DF004500D5E0550D8A0053CE7
:10058E000C5E0650D8A0063C085E086A0C6A0D6A1E
:10059E00D8A0D9EF02F0D8900232013200320832E0
:1005AE00010E0E6E0750035ED8A0E6EF02F07E0E2F
:1005BE000E240326D8B04AEF03F0ECEF02F07E0EC5
:1005CE000E240326D8A04EEF03F0180E0B6E0D3638
:1005DE000C3608360036013602360E360450005EF2
:1005EE000550D8A0053C015E0650D8A0063C025E20
:1005FE0006340E120EA007EF03F00D8012EF03F07B
:10060E00045000260550D8B0053C01260650D8B03F
:10061E00062802260D900B2EEEEF02F038EF03F0B7
:10062E00D8900036013602360E360450005E055064
:10063E00D8A0053C015E0650D8A0063C025E0634EA
:10064E000E10010B0D26D8B00C2AD8B4082AD8A447
:10065E0038EF03F008320C320D32032AD8B44AEFC9
:10066E0003F00AAE089E0850026E0C50016E0D503B
:10067E00006E50EF03F0010ED3DD50EF03F0020ECB
:10068E0029DD50EF03F0040E2CDD50EF03F0080EC1
:04069E00D2DC120098
:1006A2000FD0800E476E19D0C00E476E16D0940E32
:1006B200476E13D0D40E476E10D0800E476E0DD009
:1006C2004750010AEEE04750020AEEE04750030AA3
:1006D200EEE04750040AEEE0F0D74804006E4750BF
:1006E200002600C047F02F8000C059F0BBDC2F90DD
:0A06F20049C059F0B7DC2F80120058
:1006FC000050086E0150006E016A026A036A0B6AB0
:10070C000C6A960E036E0A6A00C001F008C000F075
:08071C00086A026A99DD12006F
:100724000B6A0A6A096A00500402F4CF09F0F3CF95
:1007340008F001500502F4CF0BF0F3CF0AF000509B
:100744000502F3500926F4500A22E86A0B220150EC
:100754000402F3500926F4500A22E86A0B2208C066
:1007640000F009C001F00AC002F00BC003F012004F
:10077400536A546A47C04FF048C050F049C051F022
:100784004AC052F05250FF0A08E15150FF0A05E1F5
:100794005050FF0A02E14F50FF0A0CE14BC055F0E4
:1007A4004CC056F0170E576E000E586E18DD030E2F
:1007B400006EE7D1010E4D6E51AE0ED0800E511871
:1007C400006E00C051F04D2A4BC0E1FF4CC0E2FF67
:1007D4002D0EE66E4B4A4C2A000E006E521808E1AC
:1007E4000050511805E10050501802E14F50000A22
:1007F4000BE14BC055F04CC056F0150E576E000E71
:10080400586EEDDC006ABDD15250FF0A08E1515028
:10081400000A05E15050000A02E14F50000A0CE1C1
:100824004BC055F04CC056F01B0E576E000E586E60
:10083400D6DC4DC000F0A5D1000E046E000E056E8E
:10084400000E066E7F0E076E4FC000F050C001F020
:1008540051C002F052C003F055DC010ED8B0000EB6
:10086400006E00521BE04FC000F050C001F051C0B8
:1008740002F052C003F0000E046E000E056E200E4E
:10088400066E820E076E1DDD00C04FF001C050F0F1
:1008940002C051F003C052F05406CED7000E046ECD
:1008A400000E056E200E066E820E076E4FC000F01D
:1008B40050C001F051C002F052C003F023DC000E1E
:1008C400D8B0010E006E00521BE04FC000F050C0C3
:1008D40001F051C002F052C003F0CD0E046ECC0EF4
:1008E400056E4C0E066E7B0E076EEBDC00C04FF0FF
:1008F40001C050F002C051F003C052F0542ACED7C8
:10090400FF0E4F14086EFF0E5014096E7F0E511423
:100914000A6E000E52140B6E08C004F009C005F0F4
:100924000AC006F00BC007F00436049005360636FC
:100934000736000E4F14006E000E5014016E000EA8
:100944005114026EFF0E5214036E00C04FF001C02A
:1009540050F002C051F003C052F004504F10006E2A
:1009640005505010016E06505110026E075052107F
:10097400036E00C04FF001C050F002C051F003C03C
:1009840052F07F0E525C006E00C04EF0010E526EAB
:1009940000C004F04FC000F050C001F051C002F09C
:1009A40052C003F0045007E00036009001360236CE
:1009B4000336FF0FF8D700C04FF001C050F002C05B
:1009C40051F003C052F04BC0E1FF4CC0E2FF525063
:1009D400300FE66E4B4A4C2A800E5418006E800E7F
:1009E400010A005C08E3800E060A006E800E5418AB
:1009F400005C01E30AD04BC0E1FF4CC0E2FF2E0EC5
:100A0400E66E4B4A4C2A010E536E060E4E6E4E5045
:100A1400000A54E0526A4FC000F050C001F051C0C7
:100A240002F052C003F0003600900136023603365D
:100A3400003600900136023603364F5000265050DF
:100A44000122515002225250032200C04FF001C033
:100A540050F002C051F003C052F04FC000F050C03B
:100A640001F051C002F052C003F00036009001368C
:100A74000236033600C04FF001C050F002C051F0FE
:100A840003C052F04BC0E1FF4CC0E2FF5250300FA4
:100A9400E66E4B4A4C2A5350000A0EE15406545059
:100AA400000A0AE14BC0E1FF4CC0E2FF2E0EE66EE5
:100AB4004B4A4C2A010E536E4E06A9D7FF0E4B2407
:100AC400E96EFF0E4C20EA6EEE50300A05E1010E8D
:100AD4004B5E000E4C5AF2D7FF0E4B24E96EFF0E0C
:100AE4004C20EA6EEE502E0A04E1010E4B5E000E1D
:100AF4004C5A5450000A3FE04BC0E1FF4CC0E2FFA7
:100B0400650EE66E4B4A4C2A800E5418006E800E19
:100B1400000A005C0BE24BC0E1FF4CC0E2FF2D0E6B
:100B2400E66E4B4A4C2A54500008546E54C04EF0A2
:100B3400545009080FE20A0E046E4EC000F01BEC7C
:100B440001F04BC0E1FF4CC0E2FF0050300FE66EF5
:100B54004B4A4C2A0A0E046E4EC000F01BEC01F006
:100B640008C000F04BC0E1FF4CC0E2FF0050300F62
:100B7400E66E4B4A4C2A4BC0E1FF4CC0E2FFE66AEA
:040B8400006A1200F1
:100B8800C30EC21647C000F0003600900036009031
:100B98000050C21224DCC282C2A201D0FDD7C4CF49
:0E0BA80001F0006AC3500012000E011212008C
:100BB60057EC06F00F01396B020E3C6F968269DC2A
:100BC6001DDC010E596E33EC00F00C0E596E33EC41
:100BD60000F0010E476E010E486E210E496E000EA2
:100BE6004A6E65DC020E476E080E486EDF0E496ED1
:100BF60055DD020E476E090E486E430E496E4EDDF8
:100C06001F6A206A060E476EBCDF00C01FF001C0D7
:100C160020F0030E046E000E056E81DD6CDD0A0EFB
:100C2600046ED70E056E230E066E820E076E7CDCF2
:100C360000C043F001C044F002C045F003C046F0D6
:100C460000C047F001C048F002C049F003C04AF0B6
:100C5600340E4B6E000E4C6E8ADD386A020E476EFD
:100C6600030E486E340E496E000E4A6E20DC0D0EE1
:100C76000B6E2D0E0C6ED70E0D6E0D2EFED70C2E96
:0E0C8600FCD70B2EFAD700000000BCD7FFD71A
:100CAE0010EE15F01A0E006E010E016E940EF66E19
:0E0CBE000C0EF76E000EF86EF9EC01F012004D
:020C940030002E
:040C96004E614E005D
:040C9A00494E460079
:020C9E00000054
:0E0CA00054656D7065726174757265203A005E
:020000040030CA
:0D000100331F3CFFBD81FF0FC00FE00F401B
:00000001FF
