:0400000017EF0BF0FB
:1000080000C01AF001C019F002C018F003C017F0C0
:1000180004C016F005C015F0E1CF21F0E2CF22F0C0
:10002800E9CF1FF0EACF20F0F5CF1EF0F8CF1BF094
:10003800F7CF1CF0F6CF1DF07EEC0AF01EC0F5FFDE
:100048001BC0F8FF1CC0F7FF1DC0F6FF1AC000F068
:1000580019C001F018C002F017C003F016C004F070
:1000680015C005F01FC0E9FF20C0EAFF21C0E1FF6D
:0600780022C0E2FF1100AE
:10007E00000E056E040E066E82C003F0000E046EB6
:10008E0003360436039003360436039083C000F023
:10009E00000E016E0036013600900050032601500E
:1000AE00042203C001F004C002F0013601900236B2
:1000BE0001360190023601C003F002C004F0043292
:1000CE000332049E04BC048E04320332049E04BC2C
:1000DE00048E03C000F004C001F00036009001361B
:1000EE00003600900136055000260650012200C051
:1000FE0005F001C006F000C0E1FF01C0E2FFE69E80
:10010E0000018351000A12E182C000F0000E016E60
:10011E000036009001362E0E0024E16E000E0120F6
:10012E00E26E05C0E6FF06C0E6FF11D082C000F009
:10013E00000E016E003600900136420E0024E16E74
:10014E00000E0120E26E05C0E6FF06C0E6FF05C008
:10015E00E1FF06C0E2FFE69C040E0524E16E000EF0
:08016E000620E26EE68C12008F
:0E017600800E00018211006E00C052F01200D7
:1001840082C04FF083C050F084C053F085C054F057
:10019400800E00018611006E008000C052F0120033
:1001A40082C04FF083C050F084C051F085C053F03A
:1001B40086C054F0800E00018711006E00C052F01A
:0201C400120027
:1001C60020C401F01F0E01160150010A01E08BD078
:1001D60004012451000A01E086D02151060A38E1C3
:1001E6002DD03E50010A13E1CC0E0001826F160E8F
:1001F600836F000E846F120E8227000E83238423E2
:10020600090E856F000E866F400E876FC8DF20D0FF
:100216003E50010A0EE10001170E826F170E836F22
:10022600000E846F210E856F000E866F400E876F5D
:10023600B6DF0ED00001826B9BDF0AD0040123518A
:10024600210ACFE02351220AE3E02351230AF2E0F8
:1002560020C401F0600E0116050E006E005004E089
:100266000132019EFF0FFBD70150010A01E03BD08E
:1002760027D039D038D05E0E0001826F000E836F12
:10028600010E846F000E856F400E866F78DF2BD0CF
:100296000001826B6DDF23C45EF025D000015F0E86
:1002A600826F000E836F010E846F000E856F866B62
:1002B60066DF19D00001826B5BDF22C45FF013D0CA
:1002C60004012151010AD5E02151090AD3E0215147
:1002D600020AD1E021510A0ADBE02151030ADEE0DD
:0802E60021510B0AE7E01200B0
:1002EE00700EE16E0F0EE26E00017D51E126D8B068
:1002FE00E22A7EC0E6FF7EA504D07DC082F0836B2D
:10030E00B7DE7EA305D07DC082F0010E836FB0DE16
:02031E001200CB
:1003200000017E51000A12E07DC000F0000E016E57
:10033000003600900136420E0024E96E000E0120C6
:10034000EA6EEECF04F0EECF05F011D07DC000F0E4
:10035000000E016E0036009001362E0E0024E96E6C
:10036000000E0120EA6EEECF04F0EECF05F0020E93
:100370000424E16E000E0520E26E7FC0E6FF80C01F
:10038000E6FF010E0424E16E000E0520E26E81C03E
:10039000E6FF04C0E9FF05C0EAFFEECF00F004C0AD
:1003A000E1FF05C0E2FF400E0014E66E04C0E9FF65
:1003B00005C0EAFFEECF00F004C0E1FF05C0E2FF98
:1003C000880E0010E66E7E51000A1BE07DC000F032
:1003D000000E016E003600900136420E0024026EBF
:1003E000000E0120036E02C0E9FF03C0EAFF040E05
:1003F000EE18006E02C0E1FF03C0E2FF00C0E6FF9E
:100400001AD07DC000F0000E016E0036009001365B
:100410002E0E0024026E000E0120036E02C0E9FFC2
:1004200003C0EAFF040EEE18006E02C0E1FF03C035
:10043000E2FF00C0E6FF04C000F005C001F01200BA
:10044000235215E0010E00017D6F1E0E7E6F4FDFFF
:10045000010E7D6F7E6B29C07FF02AC080F0400EB8
:10046000816F5EDF00C040F001C041F014D0000198
:10047000010E7D6F1E0E7E6F3ADF010E7D6F7E6B6B
:1004800029C07FF02AC080F0400E816F49DF00C094
:0804900040F001C041F0120030
:08049800235201E094DE120082
:1004A00077C002F078C003F07AC000F07BC001F0A2
:1004B000010E00017A5F000E7B5B0050011009E025
:1004C00002C0E1FF03C0E2FF79C0E6FF024A032A4F
:0404D000EBD7120054
:1004D4000CD0B4DF3CD03BD0DDDF39D038D037D0BE
:1004E40036D035D0000033D032D0000E0001781958
:1004F40002E1010E7719EDE0000E781902E1020E17
:100504007719E9E0000E781902E1030E7719E4E0A7
:100514007851000A02E1730E7719E0E07851000A7D
:1005240002E1750E7719DBE07851000A02E1740EDE
:100534007719D6E078513F0A02E1FF0E7719D1E02E
:100544007851000A02E1720E7719CCE0CDD7010E82
:04055400006E120023
:100558000B6A0A6A096A00500402F4CF09F0F3CF63
:1005680008F001500502F4CF0BF0F3CF0AF0005069
:100578000502F3500926F4500A22E86A0B220150BA
:100588000402F3500926F4500A22E86A0B2208C034
:1005980000F009C001F00AC002F00BC003F012001D
:1005A800F250026EF29E0500FF6A0150FE6E005086
:0805B800FD6E02BEF28E12007E
:1005C00004012051800AD8A471D0C00E526E64D0AC
:1005D000380E006E170E016E000E026E00C04FF056
:1005E00001C050F002C051F0120E536E000E546E56
:1005F0005DD0030E006E000E016E22C404F0000EEA
:10060000056EAADF3B0E0024E96E000E0120EA6EA3
:10061000EECF4FF0EECF50F0EECF51F0020E4F2460
:10062000F66E000E5020F76E000E5120F86E090095
:10063000F5CF00F00900F5CF01F000C053F001C084
:1006400054F034D0030E225D23E2030E006E000E40
:10065000016E22C404F0000E056E7EDF320E00240F
:10066000E96E000E0120EA6EEECF4FF0EECF50F0B3
:10067000EECF51F04FC0F6FF50C0F7FF51C0F8FF6A
:100680000900F5CF00F000C053F0000E546E01D009
:10069000526A0CD0526A0AD02351010A99E02351C0
:0E06A000020AA7E02351030ACDE0F4D71200AE
:1006AE00528E710E0001776F0F0E786F796B010EFF
:1006BE007A6F000E7B6FEDDE570E776F000E786F40
:1006CE00796B010E7A6F000E7B6FE3DE22C43EF073
:1006DE003E50000A03E1100E3F6E0FD0200E3F6E0B
:1006EE00010E776F000E786F3E0E796F000E7A6FE7
:0C06FE00010E7B6F000E7C6FE6DE120028
:10070A00000E545C02E1080E535C10E253C003F081
:10071A0054C004F02450000A03E1010E246E05D0EF
:10072A002450010A02E1020E246E04D0080E036E60
:10073A00000E046E42C0E1FF43C0E2FFE69242C0EF
:10074A00E1FF43C0E2FFE69042C0E9FF43C0EAFF8F
:10075A00EECF00F042C0E1FF43C0E2FF04500010B8
:10076A00E66E010E4224E16E000E4320E26E03C0E3
:10077A00E6FF0350535C006E04505458016E00C0EB
:10078A0053F001C054F0280E2C6E040E2D6E52B098
:10079A002FD0035004102BE04FC0F6FF50C0F7FFD4
:1007AA0051C0F8FF0900F5CF00F02CC0E1FF2DC0C1
:1007BA00E2FF00C0E6FF2C4A2D2A010E4F24006EEC
:1007CA00000E5020016E000E5120026E00C04FF044
:1007DA0001C050F002C051F0010E035C006E000E21
:1007EA000458016E00C003F001C004F0D2D724D02F
:1007FA000350041021E04FC0E9FF50C0EAFF2CC0AB
:10080A00E1FF2DC0E2FFEECFE6FF2C4A2D2A010EB2
:10081A004F24006E000E5020016E00C04FF001C040
:10082A0050F0010E035C006E000E0458016E00C009
:0A083A0003F001C004F0DCD7120047
:1008440004012251010A0FE120C401F01F0E011618
:100854000150000A08E1528E2151030A03E1010EFE
:100864002B6E01D02B6A2251000AD8A489D020C44F
:1008740001F01F0E01160150020AD8A481D024C42D
:1008840001F00F0E01160150000AD8B479D0528E2F
:1008940024BF16D024C403F00F0E031603C000F0C7
:1008A400000E016E0036009001362E0E0024E96E13
:1008B400000E0120EA6EEECF04F0EECF05F015D065
:1008C40024C403F00F0E031603C000F0000E016EE3
:1008D400003600900136420E0024E96E000E01201D
:1008E400EA6EEECF04F0EECF05F02151030A07E1E2
:1008F40004C0E1FF05C0E2FF840EE66E41D024C4CB
:1009040000F00F0E0016700E026E0F0E036E0050F4
:100914000226D8B0032A02C0E9FF03C0EAFFEECFE3
:1009240000F0EECF01F0009002C0E1FF03C0E2FF4F
:1009340000C0E6FF01C0E6FF24AF11D004C0E1FF10
:1009440005C0E2FFE66A040E0418006E00C004F05D
:1009540004C0E1FF05C0E2FF400EE66E11D004C002
:10096400E1FF05C0E2FF880EE66E040E0418006E77
:1009740000C004F004C0E1FF05C0E2FFC80EE66E4B
:0209840012005F
:100986000401286B296B42D0528E28812B50010A14
:10099600D8B4288350D0528E4ED0528E24BF16D053
:1009A60024C403F00F0E031603C000F0000E016E00
:1009B6000036009001362E0E0024E96E000E01204E
:1009C600EA6EEECF04F0EECF05F015D024C403F0A6
:1009D6000F0E031603C000F0000E016E00360090E5
:1009E6000136420E0024E96E000E0120EA6EEECFBB
:1009F60004F0EECF05F004C0E9FF05C0EAFFEECF34
:100A060001F001A402D0010E286F15D020C401F018
:100A16001F0E01160150000AB7E020C401F01F0E98
:100A260001160150010AB7E020C401F01F0E01169D
:100A36000150020AB2E052AE07D0280E4F6E040EE5
:0A0A4600506E5280020E536E120033
:100A5000586A42C0E1FF43C0E2FFE66A040E421852
:100A6000E16E43C0E2FF000EE21AE66A48AE13D020
:100A7000000E006E4E1808E100504D1805E10050C0
:100A80004C1802E14B50000A05E04BC000F04CC08E
:080A900001F08ADD489E12000E
:100A9800010E5C24E96E000E5D20EA6EEECF00F0D8
:100AA80000C075F0000E4A5C03E100017551495C15
:100AB80003E249C075F00BD000017551495C006E26
:100AC800000E4A58016E00C049F001C04AF000010A
:100AD800766B7551765D1CE2280EE96E040EEA6E9F
:100AE8007651E926D8B0EA2AEECF00F046C0E1FFF9
:100AF80047C0E2FF00C0E6FF010E4624006E000E6C
:100B08004720016E00C046F001C047F0762BE1D7C0
:100B1800000E006E4A50005C02E14950000828E2CD
:100B2800010E5524E16E000E5620E26E080EE66EA8
:100B3800020E5524E16E000E5620E26E280EE66E77
:100B4800040EE66E5CC0E9FF5DC0EAFFEECF00F080
:100B580000BC07D055C0E1FF56C0E2FFC80EE66EE4
:100B680006D055C0E1FF56C0E2FF880EE66E2BD0D6
:100B7800010E5524E16E000E5620E26E080EE66E58
:100B8800020E5524E16E000E5620E26E200EE66E2F
:100B9800040EE66E55C0E1FF56C0E2FF840EE66E15
:100BA800000E006E4E1808E100504D1805E1005087
:100BB8004C1802E14B50000A05E04BC000F04CC055
:080BC80001F0EEDC489E120072
:100BD00020C401F0600E0116050E006E005004E006
:100BE0000132019EFF0FFBD70150000A01E062D0E5
:100BF0003ED0528E080E3F6E5DD0E2DC5BD057DDFA
:100C000059D03E0E4F6E000E506E5280010E536E44
:100C1000528E50D0B8DE4ED015DE4CD0570E006E3E
:100C2000000E016E24510026D8B0012A00C04FF0FA
:100C300001C050F05280010E536E528E3BD0528E46
:100C4000570EE16E000EE26E2451E126D8B0E22A82
:100C500022C4E6FF2FD0020E0001776F000E786FDE
:100C6000796B7A6B7B6B7C6B35DC24D023D00401F1
:100C70002151050ABEE02151060ABFE02151090AAF
:100C8000BEE02151080ABDE02151000AC3E0215114
:100C9000010AC2E02151030ABFE021510A0ABEE065
:100CA00021510B0ACCE02151070AD5E021510C0A51
:060CB000DDE0DCD71200BC
:100CB6006D9852BE49D048AE28D0020E586E010E2D
:100CC6004224E16E000E4320E26EE66A42C0E1FF76
:100CD60043C0E2FFC80EE66E010E5524E16E000E1B
:100CE6005620E26E080EE66E020E5524E16E000EE8
:100CF6005620E26E280EE66E040EE66E55C0E1FF43
:100D060056C0E2FFC80EE66E1ED0010E5524E16EF7
:100D1600000E5620E26E080EE66E020E5524E16EB7
:100D2600000E5620E26E200EE66E040EE66E55C0EC
:100D3600E1FF56C0E2FF8C0EE66E42C0E1FF43C003
:100D4600E2FF840EE66E7DD048BE7BD0040120AF64
:100D560051D05450275D02E15350265D04E226C46B
:100D660053F027C454F0CEDC010E586E010E552404
:100D7600E16E000E5620E26E080EE66E020E552457
:100D8600E16E000E5620E26E200EE66E040EE66E52
:100D960055C0E1FF56C0E2FF800EE66E5B6A010EAB
:100DA6005C24E16E000E5D20E26E080EE66E020E19
:100DB6005C24E16E000E5D20E26E200EE66E040EEF
:100DC600E66E5CC0E1FF5DC0E2FF840EE66E010EDA
:100DD6005B6E020E4224E16E000E4320E26E280E88
:100DE600E66E040EE66E42C0E1FF43C0E2FFC80EA7
:100DF600E66E27D0020E586E010E4224E16E000EFA
:100E06004320E26EE66A42C0E1FF43C0E2FFC80E3D
:100E1600E66E010E5524E16E000E5620E26E080EB7
:100E2600E66E020E5524E16E000E5620E26E280E86
:100E3600E66E040EE66E55C0E1FF56C0E2FFC80E30
:040E4600E66E120042
:100E4A005850020A02E123DE1ED0FDDD5B50000A83
:100E5A0019E1010E5524E16E000E5620E26E080ECD
:100E6A00E66E020E5524E16E000E5620E26E200E4A
:100E7A00E66E040EE66E55C0E1FF56C0E2FF8C0E28
:080E8A00E66E01D05B6A120064
:100E920000016E51000A12E06DC000F0000E016EFA
:100EA200003600900136420E0024E96E000E012049
:100EB200EA6EEECF04F0EECF05F011D06DC000F077
:100EC200000E016E0036009001362E0E0024E96EEF
:100ED200000E0120EA6EEECF04F0EECF05F0020E16
:100EE2000424E16E000E0520E26E6FC0E6FF70C0C2
:100EF200E6FF010E0424E16E000E0520E26E71C0D1
:100F0200E6FF04C0E9FF05C0EAFFEECF00F004C02F
:100F1200E1FF05C0E2FF400E0014E66E04C0E9FFE7
:100F220005C0EAFFEECF00F004C0E1FF05C0E2FF1A
:100F3200880E0010E66E6E51000A1BE06DC000F0D4
:100F4200000E016E003600900136420E0024026E41
:100F5200000E0120036E02C0E9FF03C0EAFF040E87
:100F6200EE18006E02C0E1FF03C0E2FF00C0E6FF20
:100F72001AD06DC000F0000E016E003600900136EE
:100F82002E0E0024026E000E0120036E02C0E9FF45
:100F920003C0EAFF040EEE18006E02C0E1FF03C0B8
:100FA200E2FF00C0E6FF04C000F005C001F012003D
:100FB200000E00016E1902E1000E6D1902E1016AD4
:100FC20009D06DC0E9FF6EC0EAFFEECF00F0016A02
:0A0FD20000BE012A01C000F0120069
:0E0FDC00160E6F6E9F0E6B6E7B0E696E12000E
:100FEA00CC0E3B6E160E3C6E000E3D6E4A0E326EF5
:100FFA00170E336E000E346EF50E356E160E366E03
:10100A00000E376E9C0E386E160E396E000E3A6E52
:02101A001200C2
:0A101C00D08EA28AA08AF28E120084
:101026006DC002F06EC003F070C000F071C001F038
:10103600010E0001705F000E715B0050011009E0A7
:1010460002C0E1FF03C0E2FF6FC0E6FF024A032AC7
:04105600EBD71200C2
:10105A0042C0E9FF43C0EAFFEECF00F000AE05D080
:10106A0042C0E1FF43C0E2FFE66A246A586A536A53
:10107A00546A526AA8DD030E0001776F000E786F7A
:10108A00796B7A6B7B6B7C6B6AEC02F00FDE120079
:10109A0042C0E9FF43C0EAFFEECF00F0000E00BCF9
:1010AA00010E0001746F040E4218006E00C042F077
:1010BA003F50080A0AE122C46EFF6E50000803E29C
:1010CA00100E3F6E02D0040E3F6E5850010A2CE1FA
:1010DA00020E4224E16E000E4320E26E280E006EDC
:1010EA00040E016E00C0E6FF01C0E6FF85EC03F0C6
:1010FA002450020A07E142C0E1FF43C0E2FF840E26
:10110A00E66E11D000017451000A07E142C0E1FF06
:10111A0043C0E2FFC80EE66E06D042C0E1FF43C0FC
:0C112A00E2FF880EE66E01D08EDC1200A1
:101136003F50000A0AE16D6A696A4DDF6CDF6DB6E1
:0C11460002D06D86FCD7010E3F6E120037
:10115200740E0001776F000E786F796B7A6B7B6B80
:101162007C6B6AEC02F06D92699468A403D0FB0E6A
:061172006816FBD7120015
:10117800200E3F5C03E36DB201D002D0006A23D099
:1011880040C06DF041C06EF010DF00521BE1010E4F
:101198004024E96E000E4120EA6EEECF00F000C058
:1011A80060F06CC06DF06E6B69C06FF06AC070F073
:1011B8006BC071F06ADE00C040F001C041F060C051
:0811C80000F001D0006A1200E2
:1011D0000CDF406A416A256A266A6A6A686AFEDE2E
:1011E0006D8C6E6A710E00016D6F0F0E6E6F6F6BFE
:1011F000010E706F000E716F16DF6D9C606B080E34
:10120000605D16E260C000F0000E016E00360090D6
:101210000136003600900136000E0024E16E040E07
:101220000120E26EE66AE66AE66AE66A602BE7D7C4
:10123000160E706E68A603D0F70E6816FBD7526ABA
:10124000486A496A4A6A6D98080E426E040E436EF7
:061250003E6A3F6A120035
:10125600200E3F5C03E36DB201D002D0006A33D0AA
:1012660025C06DF026C06EF0A1DE00522BE16CC0E9
:101276006DF0010E6E6F69C06FF06AC070F06BC0E2
:1012860071F004DE00C025F001C026F0616B626BD0
:10129600636B646B25C06DF026C06EF087DE00526E
:1012A60008E0615162116311641102E0006A0BD01B
:1012B600F1D7010E2524E96E000E2620EA6EEECF48
:0812C60000F001D0006A1200E3
:0412CE00A19A1200CF
:1012D2006984EF0E68166D82750E0001776F000E3D
:1012E200786F796B7A6B7B6B7C6B6AEC02F0120025
:1012F2007BDE406A416A256A266A6A6A686A6DDE2E
:101302006D8C6E6A710E0001776F0F0E786F796BBC
:10131200010E7A6F000E7B6F50EC02F06D9C736BC6
:10132200080E735D16E273C000F0000E016E003607
:1013320000900136003600900136000E0024E16E66
:10134200040E0120E26EE66AE66AE66AE66A732B3A
:10135200E7D7160E706E68A603D0F70E6816FBD795
:10136200526A486A496A4A6A6D98080E426E040EC9
:08137200436E3E6A3F6A12005F
:10137A00FD0E2814016E026AFF0E0216000E0218F4
:10138A0002E1000E01186CE17E0E2814016E01C004
:10139A0003F00332039E03C000F0000E016E003614
:1013AA0000900136003600900136000E0024026ECD
:1013BA00040E0120036E02C05CF003C05DF002C09F
:1013CA0055F003C056F0040E5518006E00C055F0D3
:1013DA0002C0E9FF03C0EAFFEECF00F000C001F04F
:1013EA003C0E01160132019E0132019E01500D0A86
:1013FA0035E1020E5C24E96E000E5D20EA6EEECF46
:10140A0001F0EECF02F00250040A02E1280E0118A0
:10141A0023E1020E5C24E16E000E5D20E26E200ED6
:10142A00E66E040EE66E0001736B080E735D14E23D
:10143A00200EE16E040EE26E7351E126D8B0E22A64
:10144A00280EE96E040EEA6E7351E926D8B0EA2A2C
:10145A00EECFE6FF732BE9D7FBDD01D0F1DC0DD02F
:10146A00FD0E2814016E026AFF0E0216000E021803
:0C147A0002E1040E011801E10BDE12007B
:1014860070A019D05CC0E9FF5DC0EAFFEECF01F0A5
:101496000150800A0FE142C0E9FF43C0EAFFEECFE8
:1014A60001F00150840A06E15CC0E1FF5DC0E2FF85
:0C14B6008C0EE66E7090DF0E68161200BF
:1014C20065C069F066C06AF067C06BF0010E00018A
:0614D2006C6FC0DE120089
:1014D800010E236E65C029F066C02AF067C059F076
:1014E80068C05AF071DE010E016E0150010A01E177
:0414F8001EDE1200E2
:1014FC003F50010A07E16DBA05D0686A69806988B6
:10150C00020E3F6E68A405D069A403D0FB0E6816CA
:10151C001ADE6DA202D0D5DE78D068A018D069A0F2
:10152C0016D0E1DE040E3F6E200E0401026F040E95
:10153C00036F080E016F000E0015006E00C000F462
:10154C008C0E0011006E00C000F4FE0E681668A828
:10155C0005D069A803D0B7DEEF0E681668AC11D0C1
:10156C0069AC0FD0730E0001776F000E786F796B3A
:10157C007A6B010E7B6F000E7C6F6AEC02F0BF0E73
:10158C00681668AA03D069AA01D077DF68A210D0C8
:10159C0069A20ED0FF0E0001776F3F0E786F796B4A
:1015AC007A6B010E7B6F000E7C6F6AEC02F06A6A3C
:1015BC00040E3F5C02E285DE28D069A625D000012E
:1015CC00726B040E725D20E268A61AD06CCF28F004
:1015DC00F70E6816780E2814016E0150000A02E10D
:1015EC00C6DE0DD0720E0001776F000E786F280EDC
:1015FC00796F000E7A6F7B6B7C6B6AEC02F001D01A
:0C160C0003D00001722BDDD75CDE120061
:1016180029C069F02AC06AF0400E00016B6F010E04
:061628006C6FA6DD12004C
:10162E000F0EC112070EB412000E0001656F050EEB
:10163E00666F400E676F050E686F47DFE6DF00527C
:10164E0001E1FCD7276A400E275C14E2400EE16EE2
:10165E00050EE26E2750E126D8B0E22A000EE96EA2
:10166E00050EEA6E2750E926D8B0EA2AEECFE6FF3D
:10167E00272AE9D7400E0001656F050E666F400EF2
:0E168E00676F18DF005201E1F5D7D8D7FFD7FC
:10169C00200355005300420020004800490044003C
:1016AC0020004C0069006200720061007200790039
:1016BC00000000000000000000000000000000001E
:1016CC0009022900010100C03209040000020300D4
:1016DC0000000921010100012221000705810340BE
:0916EC00000107050103400001A3
:1016F50022034D0069006B0072006F0065006C00ED
:1017050065006B00740072006F006E0069006B006D
:02171500610071
:101717000600FF0901A10119012940150026FF0054
:101727007508954081021901294075089540910275
:01173700C0F1
:1017380012010002000000083412341201000102F4
:0217480000019E
:04174A000403090487
:020000040030CA
:0E000000210E2E1EFF8181FF0FC00FE00F406A
:00000001FF
