:1000000037EF00F00000000000EF00F000000000FB
:0A0010000000000000000000F3D71C
:0C001C003A0E0D6E0D2EFED700001200F3
:100028000900F5CFE6FF0006FBE10106F9E1120041
:10003800C26A070EC012C08E17C000F000360090CA
:10004800003600900050C212C280E4DFC282C2A211
:1000580001D0FDD7C4CF01F0006AC3500012000ED2
:060068000112C29012001B
:10006E00020E0F01386F3A6B3B6B020E926E946A62
:10007E00956A010E176ED9DF00C015F001C016F09B
:0C008E0000C08BFF16C08CFFF4D7FFD71A
:020000040030CA
:0D000100331F3CFFBD81FF0FC00FE00F401B
:00000001FF
